:0E0000003EC0FECFFDCFFCCFFBCFFACFF9CF35
:10000E00F8CFF7CFF6CFF5CFF4CFF3CFF2CFF1CFC6
:10001E00F0CFEFCFEECFEDCF76206D657465720029
:10002E0062790076696B746F720055313D252E3200
:10003E0066560055323D252E3266560080C02D4E36
:10004E00414E000001002D4E414E00494E4600002B
:10005E00080060012600030068012E0007006B01F6
:10006E003100020072014A000100760152000000C8
:10007E00F894EE27ECBBF1E0FBBFEBBFE5BFF8E178
:10008E00F1BDE1BD8DE0A2E0BB27ED938A95E9F7C6
:10009E0080E094E0A0E6ED930197E9F7EEE5F0E05D
:1000AE0085919591009761F0A591B5910590159068
:1000BE00BF01F00105900D920197E1F7FB01F0CF22
:1000CE00EFE5EDBFE4E0EEBFC0E6D1E00DC0AA93D0
:1000DE00E881E7B98BE18A95F1F7369A349BFECF2A
:1000EE00349AE4B1F5B1DBC0E097E0E0E7B9E6E8B9
:1000FE00E6B9E0E0E0BFA8E0AAD074D4A0E069D0F1
:10010E00A0E6B1E072D4A1E064D0A8E6B1E06DD46F
:10011E00A0E05FD0ABE6B1E08AD0A4E66CD466D0A6
:10012E0061D4A0E056D0A0E068D4ECA7FDA76EA7DE
:10013E007FA7FE01749677D4E8E3F0E074D4E8A9C3
:10014E00F9A96AA97BA972D4DE01549670D04AD45B
:10015E00A1E03FD0A1E051D4E8A7F9A76AA77BA7F9
:10016E00FE0161D4E1E4F0E05ED4ECA5FDA56EA540
:10017E007FA55CD4DE015BD0D3CFFFCFAA93E881FD
:10018E00E07111F0C39A01C0C398E881E07211F0DA
:10019E00C49A01C0C498E881E07411F0C59A01C0F8
:1001AE00C598E881E07811F0C69A01C0C69843D48C
:1001BE00C29A41D4C2983FD472C0AA93A881DEDFFE
:1001CE00E881E295E883A881D9DF85E88A95F1F781
:1001DE0066C0AA93E881F0E0EE58FE4FE081A98157
:1001EE00AE0FEBDF5980488022960895A2E0E5DF3E
:1001FE00A3E001D4ACE0E1DFA1E0DFDFA3E0FBD3BD
:10020E00E0E04E2E5E2E0895AA93A881AA3011F03A
:10021E00571438F0E7D34394A42DDBDFA881AA301E
:10022E00F1F15394C09AA881C8DFC09838C007D4A2
:10023E001A93A981BA81ED91A983BA831E2FE0305A
:10024E0019F0A12FE1DFF5CF188123960895AA9317
:10025E00BB9ABC9ABD9ABE9ABA9AB89AB99AC298E3
:10026E00C098C1987880E881E058E0937401E881E5
:10027E00E054E0937501A4E1BED3E4D3E3D3E2D31B
:10028E00A0E27CDF88EC90E00197F1F7A8E295DF21
:10029E00A4E093DFA5E891DFA6E08FDFA7DF21962C
:1002AE000895CDD33BD7D5D3129600D73097F1F022
:1002BE00D0D3D2D38F01309761F00230E0E01E0729
:1002CE0070F0F80131978F01AA81BB811496ED93DE
:1002DE00FC93BFD31296C3D33197AC81A083B9D30D
:1002EE00E5D6FF2312F0B5D3BAD305C0B2D3EFEFE4
:1002FE00FFEFED93FC9319D725960895B6D3E0E85A
:10030E00EA83EFE3EB8308D7EE85FF85EF3FAFEF90
:10031E00FA0739F4E885F98586D3ACE4B0E077D2F4
:10032E007BC0EF3FAFE7FA0731F4A5D37CD3ADE442
:10033E00B0E06DD271C0AB85A73010F0E6E0EB8770
:10034E001B859CD311F09ED3FCCFAAD3DFD619F414
:10035E0030E098D31BC03B85A8D309F008F407C042
:10036E0091D3A3D318F0ABD3AFD3FBCF08C09DD39B
:10037E0028F4A5D3B4D3B9D33150F9CF83D390D3C6
:10038E00B9D3B3D392D310F09AD39ED310E0EB85AA
:10039E00E11710F1B5D3B9D3ADD3DF01CB018AD2BA
:1003AE00EC83FD836E837F838AD3B0D59ED40E2FCC
:1003BE00B2D3B8D3FF2766277727D0D4A1D358D589
:1003CE007ED397D6FED491D3E12F1F5FE030F9F69E
:1003DE00A2D3EEE2EC93DBCFAAD33197AA85A0830A
:1003EE0030302CF43195A885B985EDE203C0A8858F
:1003FE00B985EBE2EC939BD39AD39ED311D6E05DF5
:10040E00DB01EC9394D398D335D6E05DDB01EC930E
:10041E00A885B985E0E0EC9386D6609608950FD353
:10042E00EF97619777D610E0FE01E85AFF4F0190E3
:10043E00F081E02DE887F987FE01EA5AFF4F01901F
:10044E00F081E02DEE83FF837CD3E0E0F0E0ED93CE
:10045E00FC93DE01A45ABF4F02D33197E4912E2FA5
:10046E00E03009F4A4C1E12FE03031F4253211F46B
:10047E0011E001C069D39AC1E130B9F4253211F40B
:10048E0063D393C112E0E0E0ED8B00E02D3211F466
:10049E0001E08CC12B3219F4EBE2ED8B87C12032D7
:1004AE0019F4E0E2ED8B82C102C0E23039F450E083
:1004BE0013E0203311F4006879C102C0E33091F4E7
:1004CE00203310F02A3308F007C0AAE05A9F502DAF
:1004DE00E22FE0535E0F6AC140E02E3211F414E0B9
:1004EE0065C10FC0E43099F4203310F02A3308F0C0
:1004FE0008C00062AAE04A9F402DE22FE0534E0F43
:10050E0055C12C3619F4026015E050C103C0E53018
:10051E0009F04CC1E22FE33639F41DD323D31BD39C
:10052E00A481AA9326D341C1E53411F0E53609F42E
:10053E0002C0E636A9F523D327D3BCD52CD330D3AE
:10054E00AD85AA2332F0AD89AB3241F0A03261F015
:10055E0012C028D397D31FD3EDE2ED8B07FF04C053
:10056E00ED89EA9306D307C0EE85FF8531961FD33A
:10057E003197AD89A08305FF46E0263639F412D3B4
:10058E00AED54A93AB89BC89A5D107C00BD3A7D5ED
:10059E004A932A93AC89BD89B1DEF1D20BD318C030
:1005AE00E33729F4FDD20BD302D304D30AC0E037CC
:1005BE00A1F4F6D204D3FBD2AE85BF853FD11E2F58
:1005CE0008600F77403011F0411708F001C0142F6A
:1005DE0040E0E0E0EC8B30E05EC0E43611F0E9364E
:1005EE0011F4046002C0E53791F4EAE0EC8B01FFF0
:1005FE0007C0E0E0FAEC6AE97BE3E3D21AE01FC041
:10060E00E0E1F7E260E070E0DCD215E018C0E8351A
:10061E0011F4086003C0E83709F0C7C0E0E1EC8BC5
:10062E0001FF07C0E0E0F0E060E070E1CAD218E040
:10063E0006C0E0E0F0E160E070E0C3D214E04030CC
:10064E0011F00F7701C041E001FF05C0A9D29CD285
:10065E00149630D50AC002FF04C0A2D2B0D2CDD4B7
:10066E0004C09ED2ACD266277727EA87FB876C87B9
:10067E007D8702FF0FC0AD85AA232AF493D2AFD493
:10068E008AD2EDE2ED8BED89E03019F01F5F4F5FFE
:10069E0001C00B7F342F00FD13C0151710F4351752
:1006AE0008F00EC007FF08C002FF04C00B7F2D89A3
:1006BE00115001C020E301C020E246D25150EDCFCF
:1006CE00141780F4006102FF05C080D209F051506A
:1006DE0011504150E0E3EA934CD2503009F05150A2
:1006EE004150EECF312FEC89E030A9F4303091F04B
:1006FE0003FF05C0EE85FF85259159D205C0AE8555
:10070E00BF852D91AE87BF871FD2503009F0515053
:10071E003150ECCF41C06CD288D42E2F2A3030F01D
:10072E0003FF02C0295C01C0295A01C0205D04FDEF
:10073E001DC0213348F465D2A130E0E0BE07E0E0F1
:10074E008E07E0E09E0709F40BC0431740F45317E1
:10075E0010F000FF01C00EC020E207FF07C020E32B
:10076E00006102FF03C032D209F05150EDD150307A
:10077E0009F0515031503CD289D40DD2EC8941D27E
:10078E00FF276627772751D41CD2E889F9896A8911
:10079E007B89BCD409F0BFCF00FF07C0503029F0D1
:1007AE005150E0E2EA93E5D1F9CF10E052CEC9D133
:1007BE007DD4B7D4EF966F960895FF92F82E2697B4
:1007CE00ABD424D2309719F4EFEFFFEF1CC0DE014B
:1007DE00169601D48D011AD2EE83FF83E0E0E887EE
:1007EE00E987DE011A96F7D361D41DD11A930A93C5
:1007FE00E8E5F1E018D1DE011A9611DE9F01A1D1D4
:10080E00E0E0EC93F9018FD42A96FF90089517D16A
:10081E00E991F991A991B991CD0105900D92002020
:10082E00E1F7FC0108950BD1A991B991EE27FF27AD
:10083E006D91662311F03196FBCF089500D1AA2752
:10084E00BB27E991F9910590002011F01196FBCF8D
:10085E00FD01089549D47B816A81F981E88177FB96
:10086E00770F67FD7160972F9E5781F078F0983162
:10087E0090F4AA27BB27882708948795B795A79544
:10088E009A95D1F7EA23FB23682305C0E8947727CE
:10089E00EE27FF2766276F77769508F4606877F95D
:1008AE00A991B99189919991EA17FB076807790780
:1008BE0097FB089519D409D4CDDF0CD411F4ABD124
:1008CE0007C0EEF7A8D1A0E0B0E080E89FE379D2B0
:1008DE0024960895CAD0E0E0EA83EFE3EB831ED4BA
:1008EE00EB85FC85EF3FAFEFFA0729F496D1A4E52F
:1008FE00B0E08DDF74C0EF3FAFE7FA0729F48DD17A
:10090E00A5E5B0E084DF6BC0AC85AA2332F488D1B4
:10091E00B9D18BD18FD1EDE2EC93A885A73010F031
:10092E00E6E0E8871885AAD021F08AD1EED08DD1E5
:10093E00FACF90D14DD279D110E0E0E0F0E060E84E
:10094E007FE383D187D127D360F07AD1C8D07DD110
:10095E001F5F173228F061D1A9E5B0E058DF3FC024
:10096E00F1CF103021F466D1E0E3EC9319C086D0BC
:10097E00B9F066D1CAD0BED0DF01CB019BDF65D105
:10098E0069D1C4D2B2D10E2F55D1CCD0F0E058D10E
:10099E0034D3E4D16DD267D1ACD313D246D1E7CFE5
:1009AE00E885E030C1F046D1EEE2EC93E885E15007
:1009BE00E887EF5F81F057D192D037D131D195D101
:1009CE000E2F38D1AFD0F0E04ED117D3C7D191D37F
:1009DE00F8D12BD1EBCFAE81BF81E0E0EC93A5D364
:1009EE002D960895E0E0EA93089521DCA4E6B0E0A8
:1009FE003FD1FCDBF7CFB0E03BC169DB6627772741
:100A0E00ADD1A0E0B0E080EA90E432D2A4E1BEEA3B
:100A1E0087EA90E42DD2DF01CB01E0E0F0E060E068
:100A2E0074E474D20895FA93EA93089558D384E047
:100A3E00C4DE289608958DE08A95F1F70895BA934D
:100A4E00AA930895A0E39ADB88EC90E00197F1F762
:100A5E000895AA81BB810895149628D30895ED9127
:100A6E00FD913196FE93EE930895E9DF2497E0E031
:100A7E00E883E9830895E885F9850895E12F1150FB
:100A8E00E0300895AC81BD818E819F81E0E0F0E081
:100A9E0060E271E4EDD1EC83FD836E837F83089574
:100AAE00EC85FD856E857F850895EC81FD816E81D7
:100ABE007F81AC85BD858E859F856DD20895AC8571
:100ACE00BD858E859F850895EDECFCEC6CEC7DE389
:100ADE00CFD1EC87FD876E877F873F5F0895E0E07B
:100AEE00F0E060E271E4C4D10895EC87FD876E8773
:100AFE007F870895A0E0B0E080E09FE369D108957C
:100B0E00AC81BD818E819F810895EDECFCEC6CEC87
:100B1E007DE3AED10895A885B9851196A887B987CA
:100B2E0011970895E02FE05DEC93E02F0895A3DF79
:100B3E003196E887F98708953197BF01A32FEAE030
:100B4E000895AE81BF8108952A93AF81B885E98556
:100B5E00FA8509950895FE01E65AFF4F0190F0813E
:100B6E00E02D08953497DE01A65ABF4FED93FC9306
:100B7E000895AF81B885E985FA8509950895FE0136
:100B8E007696EE87FF870895DE01A65ABF4F0D9029
:100B9E00BC91A02D0895EA87FB876C877D87089509
:100BAE00DADFE0CFEA85FB856C857D850895EE87DB
:100BBE00FF870895AE85BF8536DE1E2F0895E4DFCC
:100BCE004BCFE88BF98B6A8B7B8B08950B7FED896E
:100BDE00EA93DE01A95ABF4F0D90BC91A02DFE01E4
:100BEE00E75AFF4F0190F081E02D0995503008959E
:100BFE00E889F9896A897B89AA85BB858C859D855B
:100C0E000895A889B9898A899B890895DE011C9661
:100C1E00E2D14CD2089554D20895EE81FF8103CFD4
:100C2E00E985FA856B857C850895E987FA876B8758
:100C3E007C87089586DF1196AE83BF831197089542
:100C4E00AA81BB818C819D810895EA83FB836C838D
:100C5E007D830895EA81FB816C817D81A985BA85AA
:100C6E008B859C850895A985BA858B859C8508956D
:100C7E00109639F080ED97E00197F1F7A89511974E
:100C8E00C9F7089530976040704009F07058089584
:100C9E00552342F4503811F4E0FF04C03196691F19
:100CAE00791F6BF050E8572711F45F93CFC05F3F69
:100CBE0031F0660F000C57956795752F08955F9369
:100CCE0000200AF0CFC0C8C050E8192E1522880F98
:100CDE00991F9527550F879550E8072E0522660F09
:100CEE00771F7527550F67950895689401C0E8948E
:100CFE005F93F2DF703818F07F3F08F4A7C056E11B
:100D0E00571BAAF4519558300EF4593030F0EFEFCE
:100D1E00FFEF6FEF7FE777F91AC077275523B9F00A
:100D2E00EE0FFF1F661F771F5A95D1F710C077275A
:100D3E00583028F0EF2FF62F672F5850F9CF552344
:100D4E0031F076956795F795E7955A95D1F700208E
:100D5E000AF445D15F910895689401C0E8943097E4
:100D6E0060407040B1F0002426F0772312F4009416
:100D7E0036D1172E7EE1112032F07A95EE0FFF1F3D
:100D8E00661F111CF9CFEF2FF62F612D5F938ADFAF
:100D9E005F9108954F93AF01FD01DA01AB01BC01E4
:100DAE00CA01402D012C142E4F910895EA0FFB1FFE
:100DBE00681F0895E095F0956095EF5FFF4F6F4FB8
:100DCE0008955F9381DF903871F150E8152604C0C5
:100DDE005F937ADF903839F1703821F1572F591B14
:100DEE002BF112F4D7DFFACF583118F0AA27BB2710
:100DFE008827583028F0AB2FB82F88275850F9CFB6
:100E0E00552329F08695B795A7955A95D9F7502D64
:100E1E00512572F0CBDF38F46795F795E79573950A
:100E2E0013F420C0B7DF3EDF5F910895D8F7FBCFF4
:100E3E00EA1BFB0B680B51F010F40094BBDF66232A
:100E4E0092F3EE0FFF1F661F7A95CBF7EE27FF2763
:100E5E00662777275F910895EFEFFFEF6FE77FEF3C
:100E6E005F910895EFEFFFEF6FE77FE75F910895D2
:100E7E005F932ADF703851F3903841F301240894C0
:100E8E00791F23F41CF300203AF3ECCF0F921F933B
:100E9E002F933F934F93112722279927689FA001E5
:100EAE008F9F302D410D591F6B9F300D411D591FC6
:100EBE008E9F27D0BF9F25D06A9F23D0BE9F1DD067
:100ECE00AF9F1BD0AE9F110D291F391F491F591FF0
:100EDE00E32FF42F652F522F4F913F912F911F919A
:100EEE000F9066232AF0550FEE1FFF1F661F02C0DC
:100EFE0073954BF2CDDE5F910895100D211D391FB4
:100F0E0002C0200D311D491F591F08955F93DCDE6D
:100F1E00703821F411200AF49FCFA4CF903809F431
:100F2E0095CF01240894970B1BF4D4F30020F3CF34
:100F3E00792F1F932F933F934F931124112722271D
:100F4E0033274427552790E2AE17BF078607410780
:100F5E0030F0AE1BBF0B860B410B089401C088947A
:100F6E00551F221F331F111CAA1FBB1F881F441F92
:100F7E009A9551F7F901612D4F913F912F911F9144
:100F8E00662332F0550FEE1FFF1F661F7A9543F250
:100F9E007FDE5F91089599239AF0772342F0971799
:100FAE0048F029F4AE17BF07860720F031F0989469
:100FBE0088940895989408940895189488940895A0
:100FCE007723C2F7971798F3A9F7EA17FB07680775
:100FDE0088F399F3ECCF0024AF0DB01D0895F09572
:100FEE0060957095E195FF4F6F4F7F4F0895FE2FDF
:100FFE00FF0FFF0B6F2F7F2F08956F2F660F660B5E
:10100E00762F0895002498E0AA0F001C0E1A10F4F3
:10101E000E0E01C0A1609A95B9F7EA2FA02D089582
:10102E0039D0F0DF0EF4E19508953F934F935F931F
:10103E00002411244427552730E2AA0FBB1F881F16
:10104E00991F001C111C441F551F0E1A1F0A460B18
:10105E00570B28F40E0E1F1E461F571F01C0A1600E
:10106E003A9559F7FD01BC01D001CA015F914F912C
:10107E003F910895E894A7FF02C0A1956894E7FDFB
:10108E00E195C0DFEA2F0EF4E1950895CEDFFD0164
:10109E00BC010895E894E7FF02C0E1956894A7FFAC
:1010AE0004C0A19500F8039400FA0895ED91FC9107
:1010BE0011970895ED91FD916D917C91139708957F
:1010CE00E881F9816A817B810895A881B9818A813D
:1010DE009B810895E883F9836A837B8308957A93CD
:1010EE006A93FA93EA9308959A938A93BA93AA937A
:1010FE000895182E862F612D192E972F712D1B2EC8
:10110E00BF2FF12D1A2EAE2FE12D0895309760408E
:10111E00704008955A934A933A932A931A930A93D6
:10112E0008955D814C813B812A8119810881089542
:00000001FF
